{
  "contractName": "HelloWorld",
  "abi": [
    {
      "inputs": [],
      "payable": false,
      "stateMutability": "nonpayable",
      "type": "constructor"
    },
    {
      "constant": false,
      "inputs": [
        {
          "internalType": "string",
          "name": "name",
          "type": "string"
        },
        {
          "internalType": "uint256",
          "name": "value",
          "type": "uint256"
        }
      ],
      "name": "add_name",
      "outputs": [
        {
          "internalType": "bool",
          "name": "",
          "type": "bool"
        }
      ],
      "payable": false,
      "stateMutability": "nonpayable",
      "type": "function"
    },
    {
      "constant": true,
      "inputs": [
        {
          "internalType": "string",
          "name": "name",
          "type": "string"
        }
      ],
      "name": "get_value",
      "outputs": [
        {
          "internalType": "uint256",
          "name": "",
          "type": "uint256"
        }
      ],
      "payable": false,
      "stateMutability": "view",
      "type": "function"
    },
    {
      "constant": true,
      "inputs": [
        {
          "internalType": "string",
          "name": "name",
          "type": "string"
        }
      ],
      "name": "name_in_map",
      "outputs": [
        {
          "internalType": "bool",
          "name": "",
          "type": "bool"
        }
      ],
      "payable": false,
      "stateMutability": "view",
      "type": "function"
    },
    {
      "constant": true,
      "inputs": [],
      "name": "test",
      "outputs": [
        {
          "internalType": "uint32",
          "name": "",
          "type": "uint32"
        }
      ],
      "payable": false,
      "stateMutability": "pure",
      "type": "function"
    }
  ],
  "bytecode": "0x608060405234801561001057600080fd5b5061051b806100206000396000f3fe608060405234801561001057600080fd5b506004361061004c5760003560e01c80631ff1f33c146100515780636404ef8214610120578063c7cb577f146101fd578063f8a8fd6d146102d0575b600080fd5b61010a6004803603602081101561006757600080fd5b810190808035906020019064010000000081111561008457600080fd5b82018360208201111561009657600080fd5b803590602001918460018302840111640100000000831117156100b857600080fd5b91908080601f016020809104026020016040519081016040528093929190818152602001838380828437600081840152601f19601f8201169050808301925050505050505091929192905050506102fa565b6040518082815260200191505060405180910390f35b6101e36004803603604081101561013657600080fd5b810190808035906020019064010000000081111561015357600080fd5b82018360208201111561016557600080fd5b8035906020019184600183028401116401000000008311171561018757600080fd5b91908080601f016020809104026020016040519081016040528093929190818152602001838380828437600081840152601f19601f8201169050808301925050505050505091929192908035906020019092919050505061036c565b604051808215151515815260200191505060405180910390f35b6102b66004803603602081101561021357600080fd5b810190808035906020019064010000000081111561023057600080fd5b82018360208201111561024257600080fd5b8035906020019184600183028401116401000000008311171561026457600080fd5b91908080601f016020809104026020016040519081016040528093929190818152602001838380828437600081840152601f19601f820116905080830192505050505050509192919290505050610467565b604051808215151515815260200191505060405180910390f35b6102d86104dd565b604051808263ffffffff1663ffffffff16815260200191505060405180910390f35b600080826040518082805190602001908083835b60208310610331578051825260208201915060208101905060208303925061030e565b6001836020036101000a0380198251168184511680821785525050505050509050019150509081526020016040518091039020549050919050565b600080151561037a84610467565b1515146103ef576040517f08c379a000000000000000000000000000000000000000000000000000000000815260040180806020018281038252601b8152602001807f4e616d65206d757374206e6f7420626520696e20746865206d6170000000000081525060200191505060405180910390fd5b816000846040518082805190602001908083835b602083106104265780518252602082019150602081019050602083039250610403565b6001836020036101000a0380198251168184511680821785525050505050509050019150509081526020016040518091039020819055506001905092915050565b6000806000836040518082805190602001908083835b602083106104a0578051825260208201915060208101905060208303925061047d565b6001836020036101000a03801982511681845116808217855250505050505090500191505090815260200160405180910390205414159050919050565b6000600190509056fea265627a7a72315820e462ec358435da8f994c76a09e37f1459d65a7d5b309ed117ab20ce5ef9d2bd564736f6c63430005100032",
  "source": "pragma solidity >=0.5.0 <0.7.0;\n\n\ncontract HelloWorld {\n    // keccak256 hash\n    // takes in a series of bytes, and outputs a uint256\n    mapping(string => uint256) names;\n\n    constructor() public {}\n\n    function add_name(string memory name, uint256 value) public returns (bool) {\n        require(name_in_map(name) == false, \"Name must not be in the map\");\n\n        names[name] = value;\n        return true;\n    }\n\n    function get_value(string memory name) public view returns (uint256) {\n        return names[name];\n    }\n\n    function name_in_map(string memory name) public view returns (bool) {\n        return names[name] != 0;\n    }\n\n    function test() public pure returns (uint32) {\n        return 1;\n    }\n}\n",
  "sourcePath": "C:\\Users\\Aneesh Saripalli\\Desktop\\dev\\surge\\truffle-suite-demo\\contracts\\HelloWorld.sol",
  "compiler": {
    "name": "solc",
    "version": "0.5.16+commit.9c3226ce.Emscripten.clang"
  },
  "schemaVersion": "3.1.0",
  "updatedAt": "2020-04-17T17:27:52.589Z",
  "networkType": "ethereum",
  "devdoc": {
    "methods": {}
  },
  "userdoc": {
    "methods": {}
  }
}